:030000000208DE15
:1008DE0075C7AA75C75575FD5A75C7AA75C75575DB
:1008EE00FDA5787FE4F6D8FD9000007FFF7E03E43F
:0C08FE00F0A3DFFCDEFA75810702090A96
:10093300E4FDFCC3ED9FEC9E5015E4FBFA0BBB00FA
:0F094300010ABA04F8BBFBF50DBD00010C80E4FE
:010952002282
:10090A00E4F5B1F5B2F5B3F5B4F5ACF5AD7D017F1B
:10091A00011208007D027F021208007D037F031284
:09092A0008007D047F04020800AE
:10080000BF0106C293D2928007BF020AD293C2925E
:10081000D291D290801DBF030AD293D292C291D2BC
:10082000908010EF640460030208DDD293D292D26C
:1008300091C290EDB40A0040030208D5900843F835
:1008400028287302086102087102087502088102F3
:10085000089102089B0208A50208AB0208BB020827
:10086000C7C280C281C283C284C285C286D2878049
:1008700064D2808038C280C281D283C284C2858023
:100880000AC280C281C283C284D285D286C28780D6
:1008900044D280C281C283D2848034C280D281C2D9
:1008A00083C284802AC280D2818014C280C281C265
:1008B00083D284D285D286D287801AC280C281C276
:1008C00083C284C285800AC280C281C283C284D2AC
:0E08D00085C286C287C293C292C291C2902294
:00000001FF
